:020000040800F2
:10000000D851002071790008F5770008F7770008CB
:10001000F9770008FB770008FD7700080000000072
:10002000000000000000000000000000197200083D
:10003000FF77000800000000C1710008956D0008FE
:100040009B7900089F790008A3790008A779000828
:10005000AB790008AF790008B3790008B7790008D8
:10006000BB790008BF790008C3790008C779000888
:10007000CB790008CF790008D3790008D779000838
:100080000178000807780008DB790008DF790008AC
:10009000E3790008E7790008EB790008EF790008B8
:1000A000F37900080D780008F7790008FB7900085B
:1000B000FF790008037A0008077A0008137800081F
:1000C0000B7A00080F7A0008137A000819780008E4
:1000D000177A00081F780008257800081B7A0008A6
:1000E0001F7A0008237A0008277A00082B7A000874
:1000F0002F7A0008337A0008377A00083B7A000824
:100100003F7A0008437A0008477A00084B7A0008D3
:100110004F7A0008537A0008577A00082B780008B5
:100120005B7A00085F7A000831780008637A00087B
:10013000677A00086B7A00086F7A0008737A000803
:10014000777A00087B7A00087F7A0008837A0008B3
:10015000877A00088B7A00088F7A0008937A000863
:10016000977A00089B7A00089F7A0008A37A000813
:10017000A77A0008AB7A0008AF7A000800000000F8
:10018000B37A0008B77A00082DE9F04F0FF2A41CEB
:10019000A1B0DCE90089CDE900892A9DDFF8109C37
:1001A000049100248DF843500D944FF0FF3882469F
:1001B00016461F460FE0B3462C461BF8011B049859
:1001C000D0470028049000F0A2800D98401C641EC7
:1001D0000D90F2D176193078252808D1002100221F
:1001E0000791089209910A920B910C920DE06A46D0
:1001F0004146304600F0F4FF050001D10D98A1E022
:10020000D9D50125E6E741F0010116F8010F2028B4
:10021000F9D023280CD02B2804D02D2805D0302845
:1002200009D076E041F00201EFE741F00401ECE78C
:1002300041F00801E9E741F01001E6E70F9209E01B
:100240000F98484505DA00EB800402EB4402303A8F
:100250000F92761C3278A2F130000A28F0D3307861
:100260002E2818BFCDF8388022D116F8010F2A2881
:1002700007D138683860761C50F8042B38600E922D
:1002800016E02D280CBF761C002000220E920AE0FA
:1002900040B90E9A4A4505DA02EB820403EB4403A7
:1002A000303B0E93761C3378A3F130020A2AEFD349
:1002B000ADF8401021A0317800F09CFF08B116F88D
:1002C000010B8DF842009DF84200682804D1307877
:1002D00068280AD1622105E06C2804BF30786C28B8
:1002E00003D171218DF84210761C12A806903A466F
:1002F00016F8013B02A9504600F064F838B912AA7A
:1003000002A9504600F0CAF900287FF564AF4046C4
:1003100018E02A2892D13A683A6052F8040B3A6001
:1003200000280F9003D540420F9041F00401761C45
:1003300095E700000000000000000000686A6C748F
:100340007A4C000021B0BDE8F08F622820D06828E8
:1003500011D06A2803D06C2827D0712825D10868CD
:10036000C01D20F007000860D0E9002308300860B5
:10037000194610467047002A0A680A60106803D0C0
:10038000121D0A6000B217E0121D0A6080B217E069
:10039000002A0A680A60106803D0121D0A6040B281
:1003A0000AE0121D0A60C0B20AE0002A0A680A6068
:1003B000106803D0121D0A60C1177047121D0A6031
:1003C000002170477CB50D4611461C462E69B4F1DC
:1003D000250200F051811C3A00F08680121F022A8B
:1003E00040F282800E3A00F00B81521F5AD0093A37
:1003F0007AD0921E16D0521E35D0521E022A73D9C0
:10040000121F30D0521F00F09A80521E4AD0521E46
:1004100000F0E480D21E00F00181921E42D0D21E74
:1004200040D02FE195F83A406C2C09D06869421C05
:100430006A610A680A6052F8043B0A6033542BE18F
:100440000A680A6052F8043B0A6000930022019295
:100450004FF0FF332B636A46294600F09AF90028D3
:1004600040F11A8105E195F83A000122FFF76DFF8E
:10047000C5E900010023994204DA6869411C6961F9
:100480002D220DE0288F810704D56869411C696120
:100490002B2205E0C00722D56869411C6961202232
:1004A00032541CE095F83A000022FFF74EFFC5E9F0
:1004B000000195F83800010711D5D5E90023002087
:1004C000834208BF82420AD044F02000782806D137
:1004D000686930213154401C421C6A613454214601
:1004E00068693044E86087E00868C01D20F00700B4
:1004F0000860D0E9002308300860C5E90023D5E989
:100500000001C80F04D06869411C69612D220DE00B
:10051000288F810704D56869411C69612B2205E099
:10052000C00704D56869411C69612022325468699A
:100530003044E8602146284600F03AFAACE005F184
:100540003A02507820B14FF0FF340FF6343074E0A7
:100550001078622808D0682824D06A2812D06C2825
:100560002ED071280ED02BE00A680A6052F8040BD6
:100570000A6020B94FF0FF340FF61C305DE0E96AE5
:10058000017089E00A680A6052F8040B0A6020B919
:100590004FF0FF340FF600304FE0EA6AD317C0E99E
:1005A000002379E00A680A6052F8040B0A6020B957
:1005B0004FF0FF340FF6E0203FE0E96A01806BE086
:1005C0000A680A6052F8040B0A6020B94FF0FF3441
:1005D0000FF6C42031E0E96A01605DE00A680A6054
:1005E00052F8040B0A60002120F0000221F0FF33D2
:1005F000C5E90023EE607821284600F02DF94BE094
:100600006C2285F83A200B680B6053F8042B0B60C2
:1006100052BB4FF0FF340FF6B4200EE095F83A20AD
:100620006C2AF0D00868086050F8044B0860EC6051
:100630003CB94FF0FF340FF6782000F003FE201A8B
:1006400076BD2E6B002E04D5204600F01BFE04461E
:1006500008E032460021204600F03EFE002814BF8C
:10066000041B3446AC6117E0294600F092F80028DC
:1006700012D54FF0FF3076BD6869411C69612522B3
:10068000325409E06969481C6861252272542100CE
:1006900002D0431C6B613454002076BD2DE9F0413B
:1006A0000E4605469046726B7069316AB46A121A3A
:1006B000B069521A716A121AF069521A121A96F82F
:1006C0003800141B41070DD4002C0BDD2746B06801
:1006D0002021A8470028B06057D0F06A401C7F1E38
:1006E000F062F4D1736942463146284600F0B0FC0E
:1006F00000284AD1376A002F0ADDB0683021A847A8
:100700000028B06041D0F06A401C7F1EF062F4D136
:10071000B369F2683146284600F09AFCA8BB776AB4
:10072000002F09DDB0683021A847B06068B3F06AD7
:10073000401C7F1EF062F5D1F068B169F369421880
:100740003146284600F084FCF8B9B76A002F09DD6D
:10075000B0683021A847B060B8B1F06A401C7F1E75
:10076000F062F5D196F8380041070BD5002C09DD71
:10077000B0682021A847B06038B1F06A401C641E00
:10078000F062F5D10020BDE8F0814FF0FF30BDE808
:10079000F0812DE9F8470D46A3B02F6B002F0646D8
:1007A000904648BF6FF000470FF63C1400F0C0FDC4
:1007B000D4E90023696B4018CDE90123812828BFC3
:1007C0004FF0FF3042D20024002F33DDD8F8001064
:1007D00001AA684600F006FD8146B9F1000F38D441
:1007E000D8F8000010B9B9F1010932D44F4521DB26
:1007F0006869484481280AD30021696303AA29460D
:100800003046FFF74BFF040014D40020686103ABAF
:10081000D5F814A04A46694603EB0A0000F092FDA1
:10082000CA44C5F814A058F8040B002818BFA7EB59
:100830000907C9D14CB903AA29463046FFF72EFF54
:10084000044614B9002068616863204624B0BDE8FE
:10085000F0874FF0FF34F8E72DE9FC4707468C4658
:100860003E69BCF16F0F08BF082405D04CF0200092
:10087000782814BF0A2410243C25D7E90023BCF1B2
:10088000640F18BFBCF1690F9046994606D100214C
:100890008B4203DAD8F1000869EB49094FF0000AEE
:1008A000D14508BFD0451FD1386BE8B9082C4BD1D2
:1008B00097F83800010747D530203B2586F83B00E4
:1008C00042E000280ED597F8380000F014001028F8
:1008D00008D17B6B7969386A5B1A1B1A9A1A002A4D
:1008E000C8BF3A62BDE8F3878DF800C0404649466C
:1008F0002246E31700F07AFD3032D0B26D1E3A285E
:10090000019504DB9DF80000A0F151018A18725591
:10091000404649462246E31700F068FD8946804676
:10092000D14508BFD04503D0F86871198842DDD39E
:10093000082C09D197F83800010705D5705D3028DB
:1009400002D06D1E30207055C5F13C02BA6171199C
:10095000F960386B8242B4DA821A3A624FF6EF706D
:10096000398F01403987BDE8F3872DE9D04306462A
:100970000F4614464FF00008DFF8389412E0E00705
:1009800007D542464B463046394600F047FE0646FC
:100990000F464046494642464B4600F03FFE641033
:1009A00080468946002CEAD130463946BDE8D083DE
:1009B0002DE9F34F054641F020048DB0D5E90089BB
:1009C000612C02AE09D0286B002848BF062003D452
:1009D00008BF672C01D101202863D5E90023580006
:1009E0004015401C0ED119030CD00320A8619DF8BE
:1009F000381061391A2902D20FF2F46111E00FF2B6
:100A0000F4610EE059004915491C0FD118030DD1AE
:100A10000320A8619DF8381061391A2914D30FF208
:100A2000DC61E868032200F08DFCD3E1194621F077
:100A30000043B3F5801F10460DD20027BB4208BF0C
:100A4000BA42019703D111E00FF2AC61E9E701AAC4
:100A500000F0B6FE0AE0DFF8607307EB1352DFF830
:100A60005C3301921940DFF858331943C5E900019E
:100A7000612C0ED1E86830210170821CEA609DF87B
:100A8000381061290CBF7821582141706869801C99
:100A90006861D5E900AB2BF0004300202AF000028A
:100AA000834204BF8242002300F05B81612C40F04E
:100AB000AA80286B002847BF21210091401C00908C
:100AC000009F7F1C404649460022002300F0B0FEF4
:100AD000D94601998DF8082038BF89F00049091FCF
:100AE000002FD04601910DF1090040F34981B3492F
:100AF000DFF8D0B20C91064640464946002200235A
:100B000000F0AEFE80F03B814800400D00F11C0279
:100B100011D0002A0FDD40F2FF70824205DB09F0A0
:100B2000004040EA0B01002013E00C98014041EA2C
:100B3000025140460DE029F00043002028F0000259
:100B4000834208BF82420FBF40461C22404600F04D
:100B50009FFE8046894600F039FFFF1F002F0446A4
:100B600009DD00F051FF02460B464046494600F0C1
:100B70005DFF80468946F01D072104E004F00F0266
:100B800000F8012D2411002C01DD491EF6D5491E67
:100B90005CBF002200F8012DF9D5ECE000201946D9
:100BA00002AA0A4400E05B1E12F80149491E844271
:100BB000F9D00F2804D10DF10900425C521C4254B7
:100BC000002904D50198001D02AE5B1C0190591E3E
:100BD00012D49DF838007218A0F13A07147804F185
:100BE00030085FFA88F43A2CA8BFB844491E02F8CE
:100BF0000189F3D58DF83800286B002840F1B080CA
:100C0000591E2963ACE0404649460022002300F00B
:100C10000FFE019938BF89F0004947F297504143D0
:100C2000694A91FBF2F20192D2F1070204DD4046DB
:100C30004946FFF79AFE0AE0524200206349FFF757
:100C400094FE02460B464046494600F061FF80464E
:100C5000662C286BDFF878B106BF019F0A3706279C
:100C60003F18142FC8BF142730208DF8080089467C
:100C70000DF1090000E03046002F34DD0646404605
:100C8000494601F069F801460A4606F108030420C6
:100C90000A26B2FBF6F606EB860EA2EB4E023032C7
:100CA00003F8012C0A22B6FBF2F202EB820EA6EB4D
:100CB0004E063036401E03F8026DE9D1083F002F82
:100CC00003F10806D7DD084601F05AF802460B4644
:100CD0004046494600F0AAFE00225B4600F09EFC1A
:100CE00080468946CBE70DF10901401A0DF109064E
:100CF00004E00199491E401E0191761C317830298B
:100D0000F7D0662C02D10199491C03E0652C0CBF79
:100D1000012100212B6BCB189842B8BF431E002B3A
:100D20001ED4834204DAF05C3528A8BF392000DAEB
:100D300030201946721E02EB010800E05B1E18F815
:100D40000199491E8145F9D0392802D1705C401CB7
:100D50007054002904D50198401C16465B1C019074
:100D6000019800B200901BB29DF838103246284618
:100D700000F034F82EE0C61D002F3FF7BDAE304620
:100D80000DF10901401A009903468842C8BF0B467D
:100D9000002B0DF109063FF52FAF8342BFF6FEAEE3
:100DA0000DF10900C15C07297FF7F8AE0F20F6E6C8
:100DB000CBCCCC0C0000244002FCFFFFFFFF0F80D7
:100DC0000000E03F0000F07FA08601000000F03F3F
:100DD00084D797410FB0BDE8F08F00002DE9F847A8
:100DE00083B006468A461746984600F0FDF9B8F1EA
:100DF000000F406A356B90F8009002DC4FF001085C
:100E0000BFA74AF02000BDF93040662808BF641C27
:100E100015D0672840F0848014F1040FC0F286805A
:100E2000AC4280F2838096F83800641C010702D43B
:100E3000A845B8BF454620B22D1A48BF00250FFA75
:100E400084FAF068B169BAF1000F25DC4A1C30233E
:100E50004354002D03DC96F83800010703D5F068F1
:100E600000F80290521C15EB0A0FB8BF6C4220B27A
:100E7000441941424445B8BFA046B26171620FFABD
:100E800088F5F561F068B3692A463946184400F0E0
:100E900059FA641BB462C4E022B29045084417DAE0
:100EA0004246394600F04EFAB0694044B061AAEBC0
:100EB0000801002D716203DC96F838100A0705D589
:100EC000F16801F80090F069401CF061B562A8E09B
:100ED000394600F037FAB069002D5044A8EB0408F9
:100EE00003DC96F838100A0703D5F16801F8009082
:100EF000401CB0610FFA88F08542F368B069B8BF52
:100F0000A8460FFA88F207EB0A01184400F01AFA13
:100F1000B1690FFA88F00144B161281A706280E06B
:100F2000BAF1610F14D14FF0700A16E0A84504DA47
:100F300096F838100A0758BF45466D1E48BF002571
:100F4000BAF1670F14BF4FF0450A4FF0650A04E08D
:100F5000BAF1410F08BF4FF0500AB169F368481C5D
:100F6000B061002D17F8012B5A5403DC96F83810A5
:100F70000A071BD5F168431CB36101F80090002DEE
:100F800014DDA8F101080FFA88F039468542F768A8
:100F9000B8BFA8460FFA88F2F81800F0D3F9B06984
:100FA0000FFA88F108446D1AB0617562F068B16992
:100FB0000844002C80F800A003D42B224270811C2E
:100FC00003E02D2141706442811C00206A460AE042
:100FD00023460A2493FBF4F404EB8405A3EB4503B6
:100FE00002F8013B401C24B2002CF1DC012806DC95
:100FF0004AF02002652A04BF302201F8012B48B9CB
:10100000302001F8010B07E0401E1DF8003030339E
:1010100001F8013B0028F7DCF268B0691044091AB6
:10102000F16196F8380000F0140010280DD17269B3
:10103000B169706A8A18F1698218B06A8A188218D0
:10104000706B8242BCBF821A326204B0BDE8F08786
:10105000F8B505460E4617461C46002074B117F831
:10106000011BB068A847B06030B1F06A401CF06264
:101070000020641EF3D1F2BD4FF0FF30F2BD00003E
:101080007072696E74665F733A20256E20646973AE
:10109000616C6C6F776564007072696E74663A207B
:1010A00062616420256E20617267756D656E7400E3
:1010B0007072696E74665F733A2062616420257392
:1010C00020617267756D656E740000007072696EE4
:1010D00074665F733A2062616420256C73206172CC
:1010E00067756D656E740000000000000000000070
:1010F0006E616E004E414E00696E6600494E4600BC
:101100003000F0B40246106895681318506803EB7D
:101110005004C0071DD54D441BE013F8017B05F8B2
:10112000017B491EF9D1A0B1B60813F8011B06F0E6
:101130000306032E08BF13F8016B01EB0621494299
:10114000801C294405D011F8016B05F8016B401E85
:10115000F9D1A3420ED013F8016B16F0030104BFBE
:1011600013F8011BC91C30090F28DAD113F8010B41
:101170000F30D6E7F0BC02F10C0070471B487047F7
:1011800070B45368D418042B09DA41B1057804F817
:10119000015B10F8016B16B15B1C491EF3E753604D
:1011A00070BC704738B514461D4661B1FFF7E8FFC3
:1011B00061686A6B204690476FF00102811A02D085
:1011C000491E01D001E003E005E00021616032BD6D
:1011D0006FF0010032BD4FF0FF3032BDDA6B1047C7
:1011E000024BDFE7014BF9E701487047C4000020DC
:1011F0008C0000200278C9B28A421AB11CBF10F8D4
:10120000012FF9E718BF0020704730B4002513E024
:1012100050F8042BD30744BFA9F101039A18091F02
:10122000042942F8045BFAD213468C0744BF1580A8
:101230009B1CC90748BF1D7050F8041B0029E7D14B
:1012400030BC704780B500B906A005490B681BB1DA
:1012500022220021984701E000F09FFD222002BDDC
:10126000CC4D0020636F6E73747261696E74206878
:10127000616E646C65723A20626164206D6573739F
:101280006167650000F10103810704D010F8011BBC
:10129000820781B1FAD10268A2F10131914311F0C4
:1012A000803104BF50F8042FF6E709BAB1FA81F192
:1012B00000EBD100401CC01A7047B1F5807F02D30B
:1012C0004FF0FF3070470170012070470078401EDA
:1012D0008041C043C00F7047C9B2830706D0521E79
:1012E00022D310F8013B9942F7D11FE0083A13D3FB
:1012F00002F1040241EA012141EA014150F8043BB4
:10130000121F21BF4B40A3F1013C2CEA030C1CF03F
:10131000803FF3D0C9B2001F083210F8013B521EC3
:1013200028BF91EA030FF8D818BF0120401E70476C
:1013300080B5FFF723FF006C02BD0268531C0360F9
:101340001170704762B38B0708D0521E11F8013B31
:1013500000F8013B00F024808B07F6D1830740F0B2
:10136000208000BF103A07D330B4B1E83810103AEB
:10137000A0E83810F9D230BC530724BFB1E80810F8
:10138000A0E8081044BF51F8043B40F8043BD207E2
:1013900024BF31F8022B20F8022B44BF0B780370D6
:1013A0007047121F17D35B0009D151F8043B20F896
:1013B000023B1B0C121F20F8023BF6D20BE051F847
:1013C000043B00F8013B1B0A20F8023B1B0C121FD8
:1013D00000F8013BF3D238BF121D521E24BF11F892
:1013E000013B00F8013BF8D870470000BBBBE1B1FE
:1013F000B2F5803F80F07E80022A1ED98C46B1FB78
:10140000F2F102FB11C31B0443EA1043B3FBF2FCED
:1014100002FB1C3380B240EA0343B3FBF2F002FB51
:10142000103240EA0C4000237047022A05D9844656
:10143000B0FBF2F002FB10C270474AB105D100F0D8
:10144000010249085FEA300070470022002370471C
:1014500000F0A6BC0B000200002100207047904263
:1014600071EB030CF6D3B3F5803F2FD2F0B5B3FA8E
:1014700083F7B1FA81F4A7F10F0E3D1B5340CEF173
:10148000200602FA0EF2F3415340B5F10F0746D899
:101490000F3C2C444140C4F12006A040F1414140A2
:1014A000B1FBF3F603FB1611A2FB0645001BA94195
:1014B00002D2761E8018594180EA010221FA0EF309
:1014C00062FA0EF200215A403046F0BD30B4B1FB52
:1014D000F3FC03FB1C11A2FB0C45001BA94103D22A
:1014E000ACF1010C8018594130BC02460B466046F5
:1014F00000217047B2F1807F65D3F0B5B2FA82F770
:10150000B1FA81F4C7F10F063D1B22FA06F307F189
:10151000110EF24120355A40B5F10F07B8D94140BC
:10152000C4F12006A040F1414140B1FBF3FC03FBB4
:101530001C11A2FB0C45001BA94103D2BCF1010CFC
:10154000801859410F2F12D30F3FC90341EA504170
:10155000B1FBF3F603FB1611A2FB0645D4EBC0303A
:10156000A94102D2761E8018594146EACC3C07B305
:101570004140C7F12006B840F1414140B1FBF3F6CC
:1015800003FB1611A2FB0645001BA94102D2761EE1
:101590008018594180EA010221FA0EF3C7F12004B4
:1015A00062FA0EF20CFA07F05A402CFA04F13043BA
:1015B000F0BD80EA010221FA0EF3002162FA0EF278
:1015C00060465A40F0BD8C46B1FBF2F102FB11C3FC
:1015D0001B0243EA1063B3FBF2FC02FB1C331B0249
:1015E0004CEA002043EA1063B3FBF2FC02FB1C331D
:1015F0001B024CEA002043EA1063B3FBF2FC02FB3F
:101600001C331B024CEA002043EA1063B3FBF2FCDC
:1016100002FB1C324CEA002000237047B0B581EA7F
:10162000030C0CF0004C40F2FF7515EA11541DBF7D
:1016300015EA1357AC42AF4239E0E41923EA4553A7
:1016400043F48013C90241F0004141EA505EC702F1
:101650001100A7FB020200284FF00000EEFB012062
:101660004FF00001E3FB072118BF42F001024018D0
:1016700000214941E3FB0E01A4F580640F0302D26F
:1016800052004041494154F101046CDD470872F1B8
:10169000004250F1000051EB0451A1F580115CBFF4
:1016A00041EA0C01B0BD4CEA05510020B0BD05EA8D
:1016B0001357AC4214BFAF4241E050EA410E1CBF89
:1016C00052EA430E02E061460020B0BD24423C4491
:1016D0001BD15FEA070EF6D0090302BF01460020C6
:1016E000AEF1140EB1FA81F7AEEB070401FA07FE72
:1016F0000C37C7F1200100FA07F7C8404EEA000E88
:1017000023EA455343F48013A2E733F00043B3FACE
:1017100083F704BFB2FA82FE77440B3FE41BB7F1B4
:10172000200E2FBF02FA0EF3BB40C7F1200E22FAA3
:101730000EFE38BF43EA0E03BA40641C82E750EA4B
:10174000410E14BF52EA430E6FF000014FF4001730
:1017500017EB430F8ABF194617EB410FB5E74CEA69
:1017600005510020B0BDD4F10104B4F120070FDA17
:10177000C4F12007520828BF42F0010210FA07F511
:1017800001FA07F7E1BF2A43E0403843E1400FE0A8
:10179000352C98DCC7F1200452EA400220FA07F207
:1017A00018BF42F0010231FA07F0A1400A430021BC
:1017B00072F1004250F1000051EB0C01B0BD00008D
:1017C00010B5144600F002F8226010BDC1F30A53B0
:1017D00043B14A0012F5001F28D2A3F2FE32A1EB5A
:1017E0000251704750EA410C20D001F0004C31EA20
:1017F0000C01B1FA81F204BFB0FA80F3D2180B3AAF
:10180000B2F120032CBF00FA03F1914041EA0C0130
:101810003EBFC2F1200C20FA0CF319439040524213
:1018200040F2FD33D21A01EB03517047002270479A
:101830004FF4001C1CEB410F94BF1CEB430F09E05D
:1018400041EA030C50EA4C0C52EA0C0C03D29942C8
:1018500008BF9042704714BF8B428242704700001D
:101860004FF4001C1CEB410F94BF1CEB430F09E02D
:1018700041EA030C50EA4C0C52EA0C0C03D28B42A6
:1018800008BF8242704714BF9942904270470000DF
:10189000124254D440F2FF7C1CEA11530FD063452E
:1018A00031D09B1863453CBF01EB0251704701F0FA
:1018B000004141EA0C510020AFF30080704750EA2C
:1018C000410320D001F0004C91EA0C011CD0B1FA88
:1018D00081F30B3B9A420DD9D21A994051EA0C017F
:1018E000C3F1200C20FA0CFC61449840531C40F2D8
:1018F000FF7CD7E7914041EA0C01C2F1200C20FAAD
:101900000CF3194390407047B0FA80F31533202B45
:10191000E0D3202AEED3203A203B9A4209D9D21AAA
:1019200000FA03F141EA0C010020531C40F2FF7C55
:10193000B8E700FA02F141EA0C0100207047524278
:1019400040F2FF7C1CEA11530DD06345DBD0B2EBB3
:10195000030C3CBFA1EB025170470CF1010221EADC
:10196000035141F4801150EA410CCCD001F0004CFD
:10197000352A27DC30B481EA0C01B2F1200309DA00
:10198000C2F12003044601FA03F5D0402843D140B8
:101990009C400CE0C3F12002450020FA03F418BF7C
:1019A00044F0010421FA03F091400C43002174F14A
:1019B000004550F1000051EB0C01244230BC7FF493
:1019C0007BAF70476146002076E70000C1F30A5301
:1019D00040F2FE329B1A14DDD3F120034FEAE1728C
:1019E00008DDC90241EA505141F00040D84080185A
:1019F0005040704703F2E13010B1D24382F0004012
:101A00007047002070470000C11768B14840401A75
:101A1000B0FA80F29040D21CC907C2F5846241EA54
:101A2000025202EBD02140057047000070B44FF025
:101A3000004591EA030F40F1B5816B40841A71EBC8
:101A4000030603D2001BB141121973414FF4001C6D
:101A50001CEB410F34BF7CEB430442E00C0DA4EBC4
:101A60001356352E4FDC45EAC323DB0A45EAC12174
:101A7000C912B6F120050DDD63FA05F6EB4086EAE2
:101A80000305124218BF45F00105C01851F10001CD
:101A90000CD213E062FA06F5F2405540F3415A4089
:101AA000B340F3405A408018594107D349085FEAD0
:101AB00030005FEA350528BF45F0010501F58011CA
:101AC000420875F1004250F1000041EB04514E0014
:101AD00016F5001F70BC38BF70470020090D0905BE
:101AE00070471CEB410F10D252EA43060BD0BCEBFF
:101AF000410F05D80C0DAB43661E342EB6DD02E057
:101B0000AB438018594170BC704770BC70470000EF
:101B1000F0B540F2FF7581EA030C0CF0004C15EAB9
:101B200011541DBF15EA1357AC42AF42E5E0BC416A
:101B3000C1F31301C3F31303801A994143F48013D3
:101B400004D2641E4000494180185941C90241EA4B
:101B50005051B1FBF3F603FB1611A2FB0675D7EB50
:101B6000C020A94102D2761E80185941C90241EA1B
:101B70005051B1FBF3FE03FB1E11A2FB0E75D7EB18
:101B8000C020A94103D2AEF1010E8018594189024B
:101B900041EA9051760546EA8E2EB1FBF3F603FB3F
:101BA0001611A2FB0675D7EB8020A94102D2761E42
:101BB00080185941C90241EA50514EEA060EB1FB64
:101BC000F3F603FB1611A2FB0675D7EBC020A94163
:101BD00002D2761E80185941C90241EA5051B1FB28
:101BE000F3F703FB1711A2FB0735D3EBC020A94184
:101BF00067F100070CBF004247F0010766F3D527E5
:101C00004FEA1E31B80814F5806412DDBD0775F186
:101C1000004250EB0E5051EB045111F5801F5CBF98
:101C200041EA0C01F0BD4CF07F6141F0E041002041
:101C3000F0BDBD076D0840EA0E5041F48011D4F1AB
:101C40000104B4F120060ADAC4F120060200E040E3
:101C500001FA06F3E1401843B24015430EE0342C7C
:101C600013DCC6F1200445EA40056D0820FA06F2AF
:101C7000154321FA06F0A1400D43002175F1004201
:101C800050F1000051EB0C01F0BD00205FEA0C01A7
:101C9000F0BDCFB992185B41B3FA83F704BFB2FA33
:101CA00082F6BF190B3FB7F120062FBF02FA06F3E9
:101CB000BB40C7F1200622FA06F638BF3343BA40CC
:101CC0001CB1E419641E33E77F4231F00041B1FAE0
:101CD00081F404BFB0FA80F6A4190B3CB4F12006DD
:101CE0002FBF00FA06F1A140C4F1200620FA06F643
:101CF00038BF3143A0403C1B1AE7AC421ABF05EA8B
:101D00001357AF4212E050EA41061CBF52EA4306A5
:101D1000BFE750EA4107304661461CBF41EA055122
:101D2000F0BD52EA430C08BFC143F0BD00204FF4A0
:101D3000001616EB410F98BF16EB430F08BF16EBCA
:101D4000410F24BFC14305E016EB430F0CBF6146B2
:101D50004CEA0551F0BD0000400D491840EA8120D1
:101D60000CD2490DA1F58061491C40F0004005DB13
:101D7000D1F11F0154BFC840C01770470020704701
:101D8000014648B1B0FA80F18840C91CC1F58461B0
:101D9000090501EBD02140057047012000F0B8B8DB
:101DA00070470000841A71EB030604D26E40001BDA
:101DB000B141121973414FF4001C1CEB410F34BFA9
:101DC0007CEB430683E00C0DA4EB1356362E00F398
:101DD0007C80012E45EAC32341DC43EA525312BF03
:101DE000D20292025B08240545EAC12141EA505122
:101DF000D2EBC020994125D407D1B0FA80F610FA71
:101E000006F162D00020203608E0B1FA81F6B14038
:101E1000C6F1200220FA02F21143B0404FEAF474F6
:101E2000B4EB465434F001064FEA74040AD8D6F5F0
:101E30000016760D04F00044F04061FA06F25040BE
:101E4000F1404840C00A40EA415021F0004128BF1B
:101E50005FEA500550F1000044EBD12135E0DB0A88
:101E600045EAC121C90AB6F120050EDD42EA024267
:101E7000120CC5F1200603FA06F6EB4042EA06050D
:101E80006D42984161F100010DE062FA06F5F24001
:101E9000554063FA06FC82EA0C02F3405A406D4258
:101EA000904161EB030111F4801F05D1641E6205AE
:101EB00002D06D004041494121F48011430875F181
:101EC000004350F1000041EB045170BC70471CEB23
:101ED000410F15D223F0004352EA43060BD04FEADC
:101EE0004C0CBCEB410F04D80C0D661E342EB7DD34
:101EF000EBE7801A994150EA410608BF0021E4E768
:101F000008BF1CEB430F28BF6FF00001DDE70000A6
:101F100080B5AFF30080024A11001820ABBEFBE78A
:101F200026000200F8B5040025D004F13C056978CC
:101F300021B900202870204600F0B6FE24216970E7
:101F4000206802685208520002602068016841F46B
:101F5000004101602068026822F40042026000F043
:101F600072FF01466068DFF83821904205D2DFF841
:101F70003431994205D20120F2BDDFF82C018142B3
:101F8000F9D32068DFF824314668B1FBF3F3B609D2
:101F900043EA861646602668376A6068904206D330
:101FA0004FF4967043434FF47A70B3FBF0F35B1C2D
:101FB000BF0943EA87133362491E2368DE696768F5
:101FC000974206D27F0000F043F8042913D204217F
:101FD00011E0A06820B907EB470700F039F805E0E9
:101FE0001920474300F034F841F4804108050CBF44
:101FF000012141F40041DFF8B80006400E43DE61E4
:1020000022681368E169206A23F0C0030B4303438D
:1020100013602268DFF89C00936821690340E06840
:102020000B43034393602168CA68A3696069120A7D
:10203000034343EA0222CA602068016841F00101BB
:10204000016000206860202169702063A870F2BDE3
:10205000B1FBF7F1491CC1F30B01704731684A69C4
:102060000092896900910098704704460020009012
:1020700004F13C0568782028704741F480610160D4
:102080002068026842F4807202607047DFF80C61D9
:1020900037687047192000FB08F0009026687047E9
:1020A000A186010080841E0000093D0040420F000F
:1020B0000030FFFF007CFFFF026842F00102026077
:1020C0007047206320216970A870696841F0200181
:1020D00069602870012070472DE9F841FFF7C5FFBE
:1020E00027D1FFF7D3FF4FF0190EB7FBFEFE4FF4D9
:1020F0007A78BEFBF8F8FFF7CDFF00F048F815D06E
:10210000B0698707F9D42878012812D000F026F8A2
:10211000222700F011F820680168FFF7AEFF2F704A
:10212000208D08B100F02DF8002003E0FFF7C9FF73
:1021300000E00220BDE8F2816F704027AF700027F9
:102140006F6066626085044E608D2085E662A960DE
:10215000EA602B616F6170470000FFFF01272F705D
:102160003068C00703D4306840F001003060276851
:102170000898079ED7F800C02CF4006CC7F800C080
:1021800070472068416841F4E06141607047009801
:10219000401E009000980028704700008800002032
:1021A000F8B502685468C76A00F13C0300259978C5
:1021B0005E78102918BF402940F08E8095695669D5
:1021C0005FEAC67C05D4B7F52A0F18BFB7F12A4FCE
:1021D0002BD0F70710D5A7050ED5C16AB1F52A0F88
:1021E00008BF012204D0C16AB1F12A4F01D10822EF
:1021F000C262BDE8F2409BE2370717D5A70515D5A7
:102200009968C9B21161426B002A04BF816B002931
:102210000BD0D16B002902BF826BD16B002904D097
:102220000068416841F400614160F1BDB70704D521
:10223000A70502D5BDE8F240CAE26D0739D5576857
:102240003D05F2D4370606D5650504D5770702D4D7
:10225000BDE8F240D8E07507E7D5A405E5D510291B
:1022600024D1C46A59782129DFD1418D09B100F008
:102270008CB8082C1EBF202C5F498C420AD05468B1
:1022800024F4E06454601121016300229A7020213B
:10229000597007E0516821F4E061516000F051F994
:1022A0005A709970BDE8F24000F038BEBDE8F240C7
:1022B000FEE051680A0537D4710606D5620504D5DB
:1022C000710702D4BDE8F24044E171072CD5A205A4
:1022D0002AD5BDE8F240BFE1596801B99569516955
:1022E0008F0722D5A70520D5596801B195695C787B
:1022F000002104F02804282C11D1546824F48064AF
:1023000054606A0758BF01212A0654BFC268826917
:1023100000241C7092B2BDE8F84000F000BE6FF0DF
:102320000201516100201870F1BDCD0604D5A7054A
:1023300002D5BDE8F240F9E2212E18BF292E2BD19B
:102340000D061BD5660519D54D0717D45C78418D50
:1023500000294ED0416A0D78156100F0A2F8418D38
:10236000002908BF292C44D100F048F8212101633D
:1023700028225A70BDE8F24000F0D2BD490738D596
:10238000A30536D5418D002933D0416A0B781361FE
:10239000416A4A1C426229E04D061BD5660519D5E3
:1023A0004D0717D45C78418D19B31169426A1170D9
:1023B000416A4D1C4562418D4A1E4285418D00296E
:1023C00008BF2A2C15D100F019F822210163282218
:1023D0005A7043E349070CD5A3050AD5418D41B195
:1023E0001169426A1170416A4B1C4362418D4A1E59
:1023F0004285F1BD000000000000FFFF01684A684F
:1024000022F480624A60704738B500F13D021378CB
:102410005478C56A018D002908BF212B2BD1082DC6
:102420001EBF202DDFF87C178D420BD001684B6852
:1024300023F4E0634B6011210163002353702021DA
:10244000117014E000F0FBF80B6843F400730B60AC
:1024500000210163202313705178402905D1002306
:102460005370BDE8324000F05CBD00215170BDE802
:10247000324000F053BD212B03D0402C08BF222B4B
:102480000AD1418D01B9E1E05178402902D1BDE87E
:1024900032400DE000F001F831BD416A03680A786E
:1024A0001A61416A4A1C4262418D4A1E4285704748
:1024B00010B500F13D0300F148021C78916889B91C
:1024C00000685168012905D11368DBB20361906887
:1024D000801C05E011680904090E01619068401C28
:1024E000906010BD9168012907D113680068DBB2C4
:1024F00003619168491C916010BD916802291FD148
:10250000222C04D1006800F048FB016010BD418D11
:1025100021B1212C02D1FFF7C0FF10BD418D002950
:1025200008BF212C0CD101684A6822F4E0624A609D
:1025300000F007F81A705970BDE8104000F0F1BCC7
:1025400010BD01680A6842F400720A60002101634C
:102550002022704700F13D021178222900D07047F7
:1025600038B5418D04290DD301680A69416A0A70A2
:10257000426A531C4362418D4A1E4285418D0329A4
:1025800053D163E0C36A022B4FD0012918BF002941
:102590004BD10021254B009119211C68B4FBF1F1AE
:1025A0004FF47A75B1FBF5F505EB850500950368E9
:1025B0000099491E00910099C9B11C68A105F7D482
:1025C0001C6824F480641C6000F039F80B69416ACF
:1025D0000B70436A5C1C00F02BF8517840291CD129
:1025E000002353700363BDE8324000F09BBC016CD4
:1025F00041F020010164596821F4E06159600368E9
:102600001969436A1970416A4C1C00F011F80021E5
:102610005170BDE8324000F086BC0021517012229A
:102620000263BDE8324000F07FBC31BD880000206D
:1026300044622024418D4B1E43851470704701680D
:102640004B6823F4E0634B600168704700684168A1
:1026500021F48061416031BDC16A428D042A05D1F7
:1026600001684A6822F480624A6056E0428D032A7B
:102670000ED102685368042923F4806318BF02292D
:1026800053604AD001680A6822F480620A6044E01C
:10269000428D022A41D1012918BF102904D10168B5
:1026A0000A6822F480620CE0042918BF022904D1D0
:1026B00001680A6842F4806203E001680A6842F433
:1026C00000720A6001680A69416A0A70426A531C12
:1026D0004362418D4A1E428503681969426A11703E
:1026E000416A4B1C4362418D4A1E428501684A681B
:1026F00022F440724A6000F13D0120220A704B78BA
:10270000402B04D100224A70026300F00BBC00226F
:102710004A701221016300F007BC01680A69416A2E
:102720000A70426A531C4362418D4A1E42857047BB
:1027300000F13D0100F144024B78402B0DD10168BE
:10274000D06820B9126802F0FE020A617047106872
:1027500040F00100C0B2086170470369B3F5804FD3
:102760001FD103680978212904D1126802F0FE0202
:102770001A6104E0116841F00101C9B21961416BAD
:1027800000291CBFC96B002905D1816B00291CBF22
:10279000C96B00291BD00068416841F400614160A9
:1027A0007047D16839B912681204D20D02F00602DE
:1027B00042F0F00209E0D168012908D11268120440
:1027C000D20D02F0060242F0F10200680261704789
:1027D00038B500F13D014B78C26A046B09782229B3
:1027E00040F09280016D002908BF402B00F08D80E1
:1027F000016D002904BF0169B1F5404F0CD10022E1
:10280000009200F08DF80099136843F48073136010
:10281000016D491C016531BD418D11B90022009245
:1028200026E0438DDFF87C13012B39D18A4213D186
:1028300000F070F8026851680B0506D5116821F4A4
:10284000806111600022009255E0002300935469DA
:102850000094936900930DE0082A18BF202A03D042
:10286000122C0DD1012A10D000F054F80021009153
:1028700000F056F80099136843F40073136040E0C9
:10288000042A1CBF022A102A04D001680A6822F414
:10289000806203E001680A6842F480620A6028E00E
:1028A000438D022B0FD1042A1CBF022A102A0AD002
:1028B00003681C6824F480641C6003681D6845F488
:1028C00000651D6004E003681C6844F480641C60BB
:1028D00003685C6825050CD58A4218BF012A04D01C
:1028E000082A1CBF102A202A03D1596841F48051BC
:1028F0005960002100910268536900939269009227
:1029000000990022026531BD002100910168FFF7A6
:10291000A6FB31BD01680A6822F480620A60704734
:10292000026853690093946900947047F8B50446AF
:1029300004F13D052E7800F016F900200090206883
:1029400041690091FFF7B8FB009800F077F8216823
:102950004868020526D5222E18BF2A2E0FF24927D5
:102960000FD1A06B00F05CF8A06B00F071FC0128A7
:1029700018D0A06B0765A06B00F080FB90B1A06B36
:102980000EE0606B00F04CF8606B00F061FC012819
:1029900008D0606B0765606B00F070FB10B1606B76
:1029A000016D8847608D78B1206841694A0700F061
:1029B0002CF8206841694A0600F027F8608D18B1AC
:1029C000206C40F004002064206C08B1204642E0F6
:1029D0002A2E05D1206328212970204600F064FCAE
:1029E0002878282808D1DFF8BC11E16200F02CF823
:1029F000BDE8F24000F059BC206B222818BF222EFF
:102A000002D100F021F829E0F1BD08D50069616A22
:102A10000870606A421C6262608D411E6185704769
:102A2000026853686385608D18B1206C40F0040023
:102A30002064486820F4006048607047206801689E
:102A400021F48061016070470020206320212970FB
:102A5000687020467047BDE8F24003E0BDE8F240F0
:102A600000F022BC38B5044604F13D0528786978A9
:102A7000102914BF4029222804D121680A6822F4B1
:102A800000620A6000F02801282903D10020206399
:102A900029700BE0226851680A0505D4602803D02C
:102AA0002020287000216970002020632068416880
:102AB0000A0523D5416821F400614160606B0FF283
:102AC000E90190F83520012A09D00165606B00F01A
:102AD000D5FA002825D000F053F8606B0BE0A06B0E
:102AE0000165A06B00F0CAFAD8B1206800F031F897
:102AF00000F046F8A06B016D884712E02A78602A42
:102B00000AD1202129700022226400F022F800F06E
:102B100030F800F0CBFB04E000F01BF8204600F09A
:102B200002FA206C10F00F0F01D000F01CF828788A
:102B3000216C4A070BD5282809D1DFF86800E0622C
:102B400000212163202028706970204620E031BDDB
:102B5000000041694A0605D50069616A0870606A2B
:102B6000421C626270472068416821F4E061416064
:102B70007047206801684908490001602046704795
:102B800020680168490849000160202028707047CA
:102B9000BDE8324000F089BB2868016841F48071CB
:102BA000704700000000FFFF7CB50021009119254F
:102BB000816B304801F13D024FF47A761378046856
:102BC000B4FBF5F5B5FBF6F62320464300960098D6
:102BD00078B30098401E00900C6820688505F6D4F4
:102BE000486B08B10024C463886B08B10024C46337
:102BF0000868046824F48064046000204885486BF9
:102C000008B100240465886B08B1002404650868D5
:102C10000468640864000460107860280ED12023E2
:102C20001370002454700C640846BDE8764000F030
:102C30003DBB086C40F020000864D1E703F0280396
:102C4000282B0ED10868036843F001030360282392
:102C50000868046844F4806404600020086313700A
:102C600003E020201070002454700846BDE8764030
:102C700000F059B988000020294A2A482A4980B51D
:102C8000426000234FF4804201608360C3600261B0
:102C900043618361C3610362FFF744F918B1BDE882
:102CA000014000F001BC01BD38B586B0044601A862
:102CB000142100F015FC24681B4DAC422DD10020DE
:102CC0001A4C00901222216841F0020121604FF459
:102CD0004071206800F002000090009814480191B3
:102CE000029201210391032204210591049201A97A
:102CF00000F0FAFB002000900022216941F400114D
:102D000021610021206900F40010009000981F202C
:102D100000F004FD1F2000F01EFD07B030BD0000D4
:102D2000A0860100804B0020005400403038024053
:102D3000000402402DE9F04104000F4678D0584EBF
:102D4000306800F00F00B84202D200F073F86FD183
:102D50002068544D810712D5400703D5A96841F476
:102D6000E051A9602078010703D5A86840F46040CD
:102D7000A860A968A06821F0F0010143A96021784A
:102D8000C8074DD56068012802D129688A0305E08B
:102D9000022818BF032803D129688A0103D447E019
:102DA00029688A0744D5A968890840EA8100A86093
:102DB00000F0E6FC8046A868616800F00C00B0EB0B
:102DC000810F2DD000F0DCFCA0EB080041F289312E
:102DD0008842F0D3032021E02078410705D5AA6876
:102DE000E06822F4E0520243AA602178080706D581
:102DF000A968206921F4604141EAC001A96000F09E
:102E00005DF8AA682849294BC2F30312895CC840BF
:102E100018602748006800F0B9FC0020BDE8F08188
:102E2000306800F00F008742D6D200F003F8D3D00C
:102E30000120F3E73770316801F00F01B9427047A4
:102E40001A480068704719481A4A006813681A49F6
:102E5000C3F3822206E01548164A00681368164933
:102E6000C3F34232895CC840704710B50F2202603C
:102E7000104A136803F003034360146804F0F0047D
:102E80008460136803F4E053C3601268D20802F44C
:102E9000E05202610248026802F00F020A6010BDAF
:102EA000003C024000380240C07800088800002042
:102EB00084000020083802408C79000830B5144C9A
:102EC000606800F00C00042802D0082802D01DE041
:102ED000104830BD226820680023410202F03F0202
:102EE00004D525680B49C5F3881003E020680A491A
:102EF000C0F38810A1FB0001FEF778FA2168C1F346
:102F00000141491C4900B0FBF1F030BD024830BD21
:102F10000438024000127A000024F4007047704721
:102F200070477047704770477047000070B504469F
:102F300000F026FC06460CB9012070BD04F13405F2
:102F4000002028700221697020680268520852002F
:102F5000026022681068C10722D500F011FC801BB6
:102F60000628F6D32020286203216970032070BD53
:102F7000B0F5005F09D1032E42D8DFE806F00C0A55
:102F80000C02B1F1C07F3BD105E0022E03D9F61E41
:102F900036D1C80134D5402129620120687070BD46
:102FA0001368DFF8900261680340A0680B43E16892
:102FB000034320690B4361690343A0690B43E16943
:102FC0000343206A0B43616A0343042903D1E16A86
:102FD000206B01430B43136023685A69606AD2086F
:102FE000042840EAC2020BD1A66AE16A324339B131
:102FF000A0690028BCD1002E18BF022EC9D0C0D3B2
:103000005A61204600F038F9A96A3F228A4082605E
:10301000002028620121697070BDF8B5044604F1F2
:10302000340600253078776A012801D10220F2BDEC
:1030300001203070707801281CD102207070356238
:10304000204600F008F9B06A3F2101FA00F0B860AC
:103050002068016841F016010160F06820B1206825
:10306000016841F0080101602068016841F0010138
:10307000016001E0357002252846F2BD90F8351058
:10308000022903D08022426501207047052180F883
:103090003510006802685208520002600020704734
:1030A0002DE9FC41044604F13406002062490090F9
:1030B0004FF41650776A0A683D68B2FBF0F8B06AC0
:1030C000082100F0BCF80ED02068026853070AD52A
:1030D000026822F004020260B06A8140B960316A7D
:1030E00041F001013162B06A25FA00F1CA070BD53F
:1030F00021684A69110607D5012202FA00F0B8607A
:10310000306A40F002003062042100F097F808D0E5
:1031100021680A68930704D5B860306A40F004005B
:103120003062102100F08AF819D021680A6813076C
:1031300015D5B860206801684A0307D50068010307
:1031400009D5716959B12046884708E00168CA0568
:1031500001D400F078F8F16809B120468847B06AD8
:10316000202100F06CF843D021680A68D3063FD5CF
:10317000B86020687178052920D1026822F0160213
:1031800002602068416921F080014161F0680028F7
:1031900004BF7069002802D0206800F054F83F2274
:1031A000B06A8240BA600021317001227270F16908
:1031B00000293CD02046BDE8FC41084701684A038D
:1031C00007D5006801030FD4316989B120468847CB
:1031D0000EE00168CA0507D4016821F01001016002
:1031E0000020307001227270B16809B12046884712
:1031F000306AE0B1306AC10713D5052070702068CD
:1032000001684908490001600098401C8045009011
:1032100003D320680168CA07F6D40020307001216A
:103220007170B16919B12046BDE8FC410847BDE89D
:10323000F38100003F8010F088000020B06A01FA9E
:1032400000F005427047016821F0080101607047F5
:1032500090F83500704730B50468256825F480255E
:10326000256063608068402802D1A260E16030BDC3
:10327000A160E26030BD000030B5016808A401F033
:10328000FF02103A1823B2FBF3F2890A8902A55C07
:10329000C565042A28BF091D8165084630BD0000A8
:1032A00000061016000610167047704770470000A1
:1032B00008E07049096800224A62401E4A6AB2F575
:1032C0007A7FFBD381B20029F3D17047E0B500F0DB
:1032D0009BFA00F04CF800F0B1FA00F081FB00F02E
:1032E000B3FBFFF7C9FC00F0A1FC00F0FFFC00F00D
:1032F00037FD00F0B4FB604800F0B6FD01F016F8B1
:10330000002001F053F9032000F0ECFF002003211E
:10331000019000911F2364225FF00F0163A001F070
:103320008DFA00200321019000914FF4FC638C2260
:103330005FF01E0161A001F081FA002002210190DE
:10334000009140F2FF73C8225FF00F015EA001F010
:1033500075FA4FF47A7001F0ADFB002001F026F908
:1033600001F0BCFB01F08AFC01F0D2FBFEE780B566
:1033700092B006A8302100F0B3F801A8142100F0A3
:10338000AFF8002000904FF480333C48016841F0D2
:10339000805101600021006800F08050009000988A
:1033A00037480091026842F48042026001220068BE
:1033B00000F48040009006A80099069202214FF484
:1033C00080020C910D9208214FF4A8720E910F9279
:1033D0000221042207931091119202F023F8022196
:1033E0000291002203920F204FF4A051019004910A
:1033F0004FF480520592052101A8FFF79BFC13B002
:1034000000BDF8B504461F492068884208BF02F095
:103410009BF920681C4988422AD11C4D202128464E
:103420001B4C1C4E1C4F00F038F9207000F036F891
:10343000012860700BD100F035F800F02FF801285A
:103440006070FAD000F02EF80120387030702278C9
:10345000012A0DD100F026F8202100F020F80128E3
:103460002070F9D000F01EF8032038700021317070
:10347000F1BD0000D44B0020984C002040380240A1
:1034800000700040000001400014004000100240A5
:10349000D04D0020D24D00200400002040212846BD
:1034A00000F0FBB8C82003E770470000535953549D
:1034B000454D20454E455247590000004B544D5450
:1034C0002D4B313800000000506C6561736520772A
:1034D0006169742E2E2E2E2E2E2E2E2E2E000000E2
:1034E000002202F03DB900002DE9F84F0D464FF0E3
:1034F000000872490F22012304462E6803FA08F0DF
:1035000000EA0609814540F0C0804FEA480C0326D6
:1035100006FA0CF66FEA060E6E68012E18BF022E30
:1035200003D0112E18BF122E11D1A668EF680EEA33
:10353000060607FA0CF73E43A660666826EA000016
:103540006E68C6F3001606FA08F630436060E0685D
:10355000AE680EEA000006FA0CF63043E0604FEA6F
:1035600088006E68022E18BF122E12D14FEAD806BC
:1035700004EB860600F01C07D6F820A002FA07FB31
:103580002AEA0B0AD5F810B00BFA07F747EA0A0740
:10359000376226680EEA06072E7906F0030606FA59
:1035A0000CF63E4326606E68F6006ED50026009647
:1035B0004FEA980C0E68DFF808E146F480460E608A
:1035C00000F00C000E6806F480460096009E5EF83F
:1035D0002C7002FA00F627EA06063A4FBC4208BFF2
:1035E000002722D0384FBC4208BF01271DD0374FDB
:1035F000BC4208BF022718D0354FBC4208BF032782
:1036000013D0344FBC4208BF04270ED0324FBC4207
:1036100008BF052709D0314FBC4208BF062704D098
:103620002F4FBC420CBF0727082707FA00F0304392
:103630004EF82C006FEA090C2A4806680CEA060EC0
:103640006E68F70348BF49EA0E0EC0F800E046680E
:103650000CEA060E6E68B70348BF49EA0E0EC0F8C2
:1036600004E086680CEA060E6E68F70248BF49EA75
:103670000E0EC0F808E0C6680CEA060E6E68B602C8
:1036800048BF49EA0E0EC0F80CE008F10108B8F195
:103690000F0F7FF632AFBDE8F18F0069084018BF09
:1036A0000120C0B2704702B90904816170474269C4
:1036B0000A408A4208BF09048161704744380240C9
:1036C00008380140000002400004024000080240A7
:1036D000000C02400010024000140240001802409A
:1036E000001C0240003C01400901020002D41F48B6
:1036F000815470471E4B02F00F021A4402F8041C5A
:1037000070471C4B19684FF6FF020002114000F48D
:10371000E0600843184908431860704738B5154BF6
:103720001C68C4F30223C3F10704052C28BF04243A
:103730001D1D072D34BF0023DB1E012505FA04F4EF
:10374000641E2140994005FA03F35B1E1A401143A1
:10375000BDE83440C8E7010007D4012200F01F0192
:10376000064B8A40400943F82020704700E400E0FF
:1037700018ED00E00CED00E00000FA0500E100E0CB
:1037800001484068704700BF7C00002018B5014622
:1037900087B000221920FFF7C1FF1920FFF7DBFFD8
:1037A00000200090144C1548016841F001010160AF
:1037B00001A9006800F001000090009802A8FFF73E
:1037C00054FBFFF748FB0E49216040F2E73240000E
:1037D0000C49E260B0FBF1F0401E60600022226103
:1037E000A260204600F020FB18B9204600F03CFB08
:1037F00000E0012008B010BD584C002044380240C1
:103800000000014040420F0080B50B48016841F4C0
:1038100000710160026842F480620260016841F454
:10382000807101600320FFF76CFF0020FFF7AEFFFF
:1038300001F0B0FF002002BD003C02402DE9F8433A
:1038400086B068461421FFF74BFE00245748584EB7
:10385000584FDFF86481DFF86491059441F2100558
:103860000168574C41F010010160026802F010023B
:103870000592002205990592036843F00403036052
:10388000016801F0040100F09DF843F0800303603B
:10389000016801F0800100F095F843F00103036036
:1038A000016801F0010100F08DF843F008030360A6
:1038B000016801F008010591059905924FF4E44172
:1038C000036843F002030360006800F00200059003
:1038D00005982046FFF7E7FE002229463046FFF70D
:1038E000E2FE00224FF45A413846FFF7DCFE012287
:1038F0004FF400513846FFF7D6FE01224FF4807195
:103900002046FFF7D0FE002204214046FFF7CBFE01
:10391000002230214846FFF7C6FE4FF48C6000219C
:10392000009001910122029269463846FFF7DCFDC2
:103930004FF4C041009101220021029103910192B4
:1039400069462046FFF7D0FD0120032101900022A7
:1039500003910292009569463046FFF7C5FD4FF48A
:103960008070002100900191029138466946FFF76E
:10397000BBFD4FF47A4100F02AF83846FFF7B4FD5A
:103980004FF4985100F023F82046FFF7ADFD0421D5
:1039900000F01DF84046FFF7A7FD302100F017F8B2
:1039A0004846FFF7A1FD07B0BDE8F083303802407C
:1039B0000000024000100240000C024000040240DF
:1039C000000802400591059905920368704700912F
:1039D000012201920021029103220392694670475D
:1039E00080B5002000901748016841F48001016013
:1039F000026802F4800200920022009900920021E5
:103A0000036843F400130360006800F400100090A2
:103A100000981020FFF782FE1020FFF79CFE002286
:103A200000211120FFF77AFE1120FFF794FE0022FB
:103A300000213A20FFF772FEBDE802403A20FFF76E
:103A40008ABE00BF3038024080B56E486E490160C2
:103A50004FF4165200F00EF800B116E001BD80B52B
:103A60006A486B4901604FF4E13200F003F800B19D
:103A70000BE001BD00230C2142608360C360036141
:103A800041618361C36101F0A1BEBDE80140FFF760
:103A90000BBD2DE9F04786B0044601A81421FFF7BD
:103AA0001FFD2168584A5B4E5B4891424FF4807578
:103AB0004FF480684FF0006A37D1002100914269CD
:103AC00042F0100242610022416901F010010091B0
:103AD00000990092C021036843F0020303600222B0
:103AE000006800F00200009000984C4800F07EF85A
:103AF0004B483060C6F804A00021B160F160C6F800
:103B000010807161B161F561316271623046FFF719
:103B10000DFA08B1FFF7C8FC6663B4630022002108
:103B20002520FFF7FBFD25205BE0394A91425AD161
:103B30000021009106F184070269DFF8E89042F461
:103B4000003202610022016901F400310091009904
:103B500000920C21036843F0010303600222006815
:103B600000F00100009000982F4800F03FF8C6F8E0
:103B70006090C6F864A00020B066F066C6F8708059
:103B80007067B067F567C6F88000386006F16000BE
:103B9000FFF7CCF908B1FFF787FC06F1600060631E
:103BA0007C6109F11801F963C7F840A040207864EE
:103BB0000021B964C7F84C8039657965BD65F96540
:103BC000396606F1C0052846FFF7B0F908B1FFF7DE
:103BD0006BFC25637C67002200212620FFF79EFDF9
:103BE0002620FFF7B8FD06B0BDE8F08701910292EC
:103BF00000210391032207210591049201A9FFF7F7
:103C000073BC0000D84C002000100140184D00206B
:103C1000004400406C49002030380240000402405B
:103C200040640240886002400000024080B52B489A
:103C30002B4901604FF48272426000234FF40072FE
:103C40000A218360C360036143618261C3610362CF
:103C500043628362C16202F081F818B1BDE801409D
:103C6000FFF722BC01BD38B586B0044601A8142177
:103C7000FFF736FC24681A4DAC422CD1002000908E
:103C800000221848416941F480514161416901F4C1
:103C90008051009100990092E021036843F00103F4
:103CA00003600222006800F00100009000980E48B6
:103CB00001910292002103910322052105910492B2
:103CC00001A9FFF711FC002200212320FFF726FDA8
:103CD0002320FFF740FD07B030BD0000284B002037
:103CE000003001403038024000000240D0B586B0BC
:103CF000FFF7A6F8424C4349B0FBF1F020641021D5
:103D000002A8FFF7EDFB00BF43A03F49D0E90067E1
:103D1000CDE9006721600021206CA160401E606039
:103D200021614FF6FF70E0608020A061204600F026
:103D30007BF808B1FFF7B8FB4FF48050029002A95E
:103D4000204600F057F908B1FFF7AEFB00F026F867
:103D500008B1FFF7A9FB204600F073F806B0D0BD0C
:103D60001CB500BF2EA0294CD0E90023CDE90023CB
:103D70005421616000222648206042F20F71A26047
:103D8000E160A261204600F04FF808B1FFF78CFB1C
:103D900000F004F808B1FFF787FB13BD0021009184
:103DA00001912046694602F0DBB980B50068164AE9
:103DB000184990420BD1002000900A6842F010028E
:103DC0000A60086800F010000090009801BD104AD9
:103DD000904214D1002000900A6842F020020A604C
:103DE0000022086800F02000009000210098372091
:103DF000FFF794FCBDE802403720FFF7ACBC01BDE3
:103E0000D44B002080841E0000100040984C0020FD
:103E10000014004040380240000000000000000094
:103E2000000000000000000038B5040001D10120AE
:103E300032BD00F037F818B900F030F8FFF7B5FFE1
:103E400022E0022180F83D1001688A6802F0070232
:103E5000062A03D00A6842F001020A60FFE7012146
:103E600080F83D10002070470068C16841F00101F2
:103E7000C160816801F00701062903D0016841F0A3
:103E8000010101600020704702206870211D206838
:103E900000F00DF901206870002032BD002129706A
:103EA0002046704704F13C056878704710B5044619
:103EB000206801698A0715D5C1688A0712D56FF095
:103EC0000201016101222277806910F0030F204670
:103ED00002D002F08BF903E002F089F900F087F8D4
:103EE00000202077206801694A0715D5C1684A0774
:103EF00012D56FF00401016102222277806910F46B
:103F0000407F204602D002F071F903E002F06FF921
:103F100000F06DF800202077206801690A0715D5A8
:103F2000C1680A0712D56FF00801016104222277E7
:103F3000C06910F0030F204602D002F057F903E0E9
:103F400002F055F900F053F800202077206801694D
:103F5000CA0615D5C168CA0612D56FF010010161F5
:103F600008222277C06910F4407F204602D002F078
:103F70003DF903E002F03BF900F039F8002020772A
:103F800020680169CA0708D5C168CA0705D56FF05E
:103F9000010101612046FFF734FA206801690A0631
:103FA00008D5C1680A0605D56FF080010161204679
:103FB00002F01EF9206801694A0608D5C1684A0660
:103FC00005D56FF040010161204602F012F920682A
:103FD00001698A060AD5C1688A0607D56FF02001F3
:103FE00001612046BDE8104002F004B910BD204632
:103FF00002F001B938B500F04EF801D1022032BD0F
:104000000120207002226270DFF838012A6893686C
:10401000034093600868020018BF10282DD02028A4
:1040200018BF302829D0402823D0502816D0602827
:1040300018D0702803D0B0F5005F07D021E000F061
:1040400025F82868816841F0770105E000F01EF846
:104050002868816841F48041816012E000F012F824
:1040600050210BE0CA684968286800F092F8602186
:1040700004E000F007F8402100E00146286800F065
:104080009AF80EE0CA684968286873E0CB684A6805
:104090008968286897E0054605F13C0420780128E6
:1040A00070470120607000212170002032BDF0B502
:1040B000254C0568254B264E264FDFF89CC0A042B4
:1040C00018BFB0F1804F07D0604518BFB84203D089
:1040D000B04218BF98420DD14A6825F070051543CB
:1040E000A04218BFB0F1804F17D060451CBFB84246
:1040F000B04212D098421CBF184A90420DD0184EC0
:10410000B0421CBF174A904207D0174EB0421FBFA3
:10411000164A9042164EB04203D1CA6825F4407543
:1041200015434A6925F0800515430560A0428D6856
:10413000C5620A68826212BF98420969016301225E
:104140004261F0BD8800FFFF000001400004014013
:10415000000C004000080040000400400040014006
:10416000004401400048014000180040001C00408D
:104170000020004010B5036A046A64086400046209
:1041800023F00A03846924F0F00444EA02148461F1
:1041900023E010B5036A23F0100303628369046A05
:1041A00023F4704343EA023324F0A004836144EA19
:1041B0000114046210BD826822F07002114341F0C4
:1041C00007018160704710B5846824F47F4421435F
:1041D000114341EA0321816010BD1943016210BD02
:1041E00080B5FFF723FDFFF729FBBDE8084000225B
:1041F0001021DFF86005FFF756BA01B5012200F083
:1042000001F801BD6946DFF8500501F0E2BD38B59F
:104210000446DFF84055002210212846FFF743FAF4
:1042200000224FF48041DFF834050AE038B5044637
:1042300000F085F9DFF81C55FFF735FA0022102150
:104240002846FFF730FA2046FFF7D7FF2846BDE89B
:10425000384001221021FFF726BAF8B504460D4672
:1042600016461F462A20FFF7D2FF200AFFF7DEFF7F
:10427000E0B2FFF7DBFF300AFFF7D8FFF0B2FFF73D
:10428000D5FF2B20FFF7C3FF280AFFF7CFFFE8B2C7
:10429000FFF7CCFF380AFFF7C9FFF8B2FFF7C6FFF8
:1042A000BDE8F2402C20B2E710B5DFF8B04401229F
:1042B0004FF400412046FFF7F6F9C820FEF7F8FF5B
:1042C00000221021DFF88C04FFF7EDF9C820FEF77B
:1042D000EFFF2046BDE8104001224FF40041FFF7F8
:1042E000E2B9000070B504463620FFF790FF0120C8
:1042F000FEF7DEFF032CDFF868544FF4A07614D8E5
:10430000DFE804F00204060D482002E0282007E060
:104310008820FFF78BFFF02068802E8070BDE8209A
:10432000FFF784FF6E80F020288070BD80B50122E9
:104330004FF40041DFF82404FFF7B5F9FFF750FF11
:10434000FFF7B2FF0120FFF762FF4FF47A70FEF72C
:10435000AFFFCB20FFF75BFF3920FFF767FF2C2073
:10436000FFF764FF00F0E9F83420FFF75FFF022059
:10437000FFF75CFFCF20FFF74AFF00F0DEF8C12017
:10438000FFF754FF3020FFF751FFE820FFF73FFF12
:104390008520FFF74BFF00F0D0F87820FFF746FFAD
:1043A000EA20FFF734FF00F0C8F800F0C6F8ED206F
:1043B000FFF72DFF6420FFF739FF0320FFF736FFDB
:1043C0001220FFF733FF8120FFF730FFF720FFF7C0
:1043D0001EFF2020FFF72AFFC020FFF718FF232031
:1043E000FFF724FFC120FFF712FF1020FFF71EFF89
:1043F000C520FFF70CFF3E20FFF718FF2820FFF72E
:1044000015FFC720FFF703FF8620FFF70FFF3620B9
:10441000FFF7FDFE4820FFF709FF3A20FFF7F7FE00
:104420005520FFF703FFB120FFF7F1FE00F085F8FC
:104430001820FFF7FBFEB620FFF7E9FE0820FFF784
:10444000F5FE8220FFF7F2FE2720FFF7EFFEF220B5
:10445000FFF7DDFE00F071F82620FFF7D8FE0120FF
:10446000FFF7E4FEE020FFF7D2FE0F20FFF7DEFEAD
:104470003120FFF7DBFE2B20FFF7D8FE0C20FFF7E3
:10448000D5FE0E20FFF7D2FE0820FFF7CFFE4E200C
:10449000FFF7CCFEF120FFF7C9FE3720FFF7C6FE7D
:1044A0000720FFF7C3FE1020FFF7C0FE0320FFF731
:1044B000BDFE0E20FFF7BAFE0920FFF7B7FE00F0A1
:1044C0003CF8E120FFF7A3FE00F037F80E20FFF7DD
:1044D000ADFE1420FFF7AAFE0320FFF7A7FE112070
:1044E000FFF7A4FE0720FFF7A1FE3120FFF79EFE95
:1044F000C120FFF79BFE4820FFF798FE0820FFF73A
:1045000095FE0F20FFF792FE0C20FFF78FFE312063
:10451000FFF78CFE3620FFF789FE0F20FFF786FE9F
:104520001120FFF774FE7820FEF7C2FE2920FFF766
:104530006EFEBDE802400020D4E6002076E60122AF
:104540004FF4804185487047F0B504460D46FDB0F4
:10455000FFF7F5FF7F4EFFF7A6F800221021304647
:10456000FFF7A1F8200A00210DF801000DEB01036F
:10457000891CB1F5FA7F5C70F6D36D004FF4FA71C7
:10458000B5FBF1F401FB1455734F2CB14FF4FA72E3
:1045900000F088F8641EF9D1AAB200F083F8012275
:1045A00010213046FFF77FF87DB0F0BD70B50446AE
:1045B0006B484588068833462A4600210020FFF7CD
:1045C0004CFE754329462046BDE87040BCE72DE906
:1045D000FF4107466248154642880E4697423CBF57
:1045E000008886425CD2DFF8748100F05FF8594C95
:1045F00000F068F82A20FFF700FE00F05DF80122C5
:1046000000F061F800F05EF8380A8DF80800791CB7
:1046100002A80912477081707F1CC77004224E4F98
:1046200002A9384601F0D5FB012200F04CF800F059
:104630003DF800F047F82B20FFF7DFFD00F03CF8D5
:10464000012200F040F800F03DF8300A8DF8040037
:10465000711C01A8091246708170761CC670042274
:1046600001A9384601F0B5FB012200F02CF800F05A
:104670001DF800F027F82C20FFF7BFFD00F01CF814
:10468000012200F020F800F01DF8290A8DF8001032
:104690008DF80150022200F005F8012200F013F815
:1046A000BDE8FF816946384601F093BB00224FF414
:1046B00080414046FEF7F7BF01224FF4804140465B
:1046C000FEF7F1BF002210212046FEF7ECBFF8B53F
:1046D0001546234A5488A0423CBF1788B9421E465B
:1046E0001CD22B1854885B1EA342A4BF55882D1AD8
:1046F000731814885B1EA342A4BF1688761A771815
:10470000069C7B1E2F187A1E9BB292B2FFF7A5FD66
:10471000B6B2ADB205FB06F1204627E0F1BDF8B513
:1047200000F012F83CBF1788B9421D460BD223187F
:1047300056885B1EB342A4BF5488241A2218521E06
:104740000B4692B20EE0F1BD1446054A5688B042BF
:104750007047000000000240284B0020001002407B
:104760000C010020FFF779FDA1B22846BDE8F44016
:10477000EAE600002DE9F04104460D46164698464B
:10478000002706EBD67379195B08BB42AEBF7A1CD3
:10479000F21B521C434692B289B22046FFF7BFFF7C
:1047A0007F1CBE42EDDABDE8F08100002DE9FF4735
:1047B0002028A4BF2038C0B2884606262DA10D9C13
:1047C0000C9D16FB00F0914601449A46062201A872
:1047D000FCF7B8FDEB0015FB06F200949BB292B219
:1047E00049464046FFF773FF0026002701A9012331
:1047F0008A5DBB401A4219D0012D09D107EB09018E
:1048000006EB0800524689B280B2FFF7E0FE0DE0E9
:1048100005FB07F0484481B205FB06F04044CDF8A3
:1048200000A02B462A4680B2FFF751FF7F1C082FBD
:10483000DCDB761C062ED8DBBDE8FF872DE9FE43C6
:104840000A9C0B9D06460F46904699460DE0019541
:1048500000944B4616F8010B4246F9B2FFF7A6FF4B
:1048600020460621484350FA87F730780028EED1D9
:10487000BDE8F7830000000000005C0000000000BD
:10488000060006000000287C287C28005C54FE54AA
:10489000740044201008440028545420500006009E
:1048A0000000000038440000000044380000000010
:1048B00002070200000010107C101000C000000071
:1048C00000001010101010004000000000006010E8
:1048D0000C0000007C64544C7C00487C40000000CC
:1048E000645454544800445454546C003C20702088
:1048F00020005C54545424007C5454547400040428
:1049000064140C007C5454547C005C5454547C005B
:10491000440000000000C400000000001028440013
:104920000000282828282800442810000000080437
:10493000540800007C4454545C007C2424247C00F3
:104940007C5454546C007C44444444007C444444AF
:1049500038007C54545444007C14141404007C44E7
:10496000445474007C1010107C0044447C44440087
:10497000604040447C007C10102844007C40404053
:1049800040007C0810087C007C0810207C00384423
:10499000444438007C14141408003C2464243C0073
:1049A0007C14141468005C545454740004047C0493
:1049B00004007C4040407C000C3040300C003C4007
:1049C00030403C004428102844000C1060100C00BB
:1049D0004464544C44007C44000000000C1060000F
:1049E0000000447C00000000000100010000404085
:1049F000404040400001000000007C2424247C0052
:104A00007C5454546C007C44444444007C444444EE
:104A100038007C54545444007C14141404007C4426
:104A2000445474007C1010107C0044447C444400C6
:104A3000604040447C007C10102844007C40404092
:104A400040007C0810087C007C0810207C00384462
:104A5000444438007C14141408003C2464243C00B2
:104A60007C14141468005C545454740004047C04D2
:104A700004007C4040407C000C3040300C003C4046
:104A800030403C004428102844000C1060100C00FA
:104A90004464544C4400107C440000006C0000004E
:104AA0000000447C10000000020102010000000030
:104AB0000000000038B50446FEF762FE14F1010F55
:104AC000054602D0044801786418FEF759FE401BE1
:104AD000A042FAD331BD00BF7C000020EFF3058077
:104AE00060B9DFF86811EFF31080002804BFEFF31E
:104AF0001180002803D00868022800D17FE00868F0
:104B000010B901220A6070474FF0FF307047000073
:104B100080B5EFF3058058B9DFF8301100F072F876
:104B200004BFEFF31180002803D00868022800D1E9
:104B300009E00868012805D102220A6001F071FC31
:104B4000002002BD02E06FF0050002BD4FF0FF3013
:104B500002BDF8B584B000230393EFF30583002B67
:104B60004AD1EFF31083002B04BFEFF31183002B26
:104B700004D0DFF8D8301C68022C3DD003003BD0B5
:104B80008025182600245AB3136803B11C46936984
:104B90001BB11E0004D0392E02D21379DF0701D5D4
:104BA00000202AE0536903B19D08D2F80CC0976831
:104BB00087B1BCF15C0F1FD31269002A18BF002B0C
:104BC0001AD001920B46029700962A46214601F020
:104BD00013FB10E0BCF1000F04BF1269002A0BD1D7
:104BE00003AB019300960B46AAB2214601F033FBBA
:104BF000012801D000200390039805B0F0BD6FF0AC
:104C000005007047EFF310800028704710B5EFF3F0
:104C1000058149B900F011F804BFEFF311810029B3
:104C200005D000F00EF802D16FF0050403E0002477
:104C300008B101F0DCFB204610BDEFF31081002924
:104C4000704702490A68022A70470000BC4D0020E4
:104C5000084B036003F15C0008608021116070471D
:104C6000054B036003F15C0008604FF48071116034
:104C700070470000E44500208841002010B5DFF8AF
:104C8000C44500224FF4007100F052F800224FF4A6
:104C9000005100F04DF801224FF4805100F048F827
:104CA00001224FF4804100F043F8DFF89C450022D8
:104CB000202100F03DF8002200F0E5F9002200F08C
:104CC000DAF90022102100F033F80FF280620FF2BF
:104CD0006900DFF878450021FFF73BFF20600021E5
:104CE0000FF28C620FF2AD30FFF733FF60600021EE
:104CF0000FF2A0620FF2A930FFF72BFFA060002196
:104D00000FF2B4620FF28540FFF723FFE06000214D
:104D10000FF2C8620FF20950FFF71BFF206100215C
:104D20000FF2DC620FF21150FFF713FF606110BD4C
:104D30002046FEF7B8BC00002DE9FE4FABA4DFF81B
:104D40000885DFF80C550FF2385ADFF80875D0A641
:104D50004FF6E07B4FF61F090FE030280BD10620FD
:104D6000387208E0302801D10620F871F87831282F
:104D7000F3D10521397200F04FFAB86B401CB863CB
:104D80003879002864D100F06CF900F060F9FB8CF0
:104D9000BA8C0FF2FC4100F02FF900F036F94B46C7
:104DA000282200F02DF9BB8DFA8D0FF2F44100F0AE
:104DB00023F900F059F93C2200F022F97B8D3A8D5D
:104DC0000FF2F04100F018F900F01FF94FF62053F0
:104DD000502200F015F9FA690FF2EC4107F1480092
:104DE00001F0B6FD00F011F94FF4FC63642200F00D
:104DF00007F93B8E7A8E0FF2DC4100F0FDF800F0EF
:104E000004F940F2FF73782200F0FAF828780FF2E4
:104E1000D84100906B78AA7807F1480001F098FD1E
:104E200000F022F9B42200F0EBF8A879019007F124
:104E30004800697900912B79EA780FF2C44101F0BA
:104E400087FD00F0E2F84B46C82200F0D9F8A0E058
:104E5000012804D10020FFF7A9FB0220A8E00228C6
:104E600040F09F8000F0FDF800F0F1F800200221F2
:104E7000019000914FF4FC63282250210FF29840DA
:104E8000FFF7DCFC00F0F0F8502228210FF29840E8
:104E9000FFF7D4FC00F0E8F8782228210FF29440C4
:104EA000FFF7CCFC00F0E0F8A02228210FF28C40A4
:104EB000FFF7C4FC00F0D8F8C82228210FF2844084
:104EC000FFF7BCFC7879012807D100F0CAF800F0A0
:104ED000B6F800F08EF8012008E002280CD100F0AE
:104EE000C0F800F0ACF800F0CBF800207872024671
:104EF00020214046FEF7D7FBB879032807D1FFF7FA
:104F0000F1F900F095F800F073F8012008E00428AA
:104F10000AD100F0A6F800F08BF800F0B0F80020FD
:104F2000B872024600F0AFF8F879052807D100F012
:104F300098F800F076F800F05BF8012008E0062809
:104F40000AD100F08EF800F06CF800F098F800201C
:104F5000B872024600F08FF8387A052807D100F0C1
:104F600080F800F057F800F043F8012008E0062828
:104F70000CD100F076F800F04DF800F080F8002039
:104F8000F872024610214046FEF78DFB0120FFF724
:104F9000A9F94FF4FC63322264214FF49170FFF7BA
:104FA000E9FB3879032804D10020FFF7FFFA00203D
:104FB0003871A949087801287FF4DDAE38783128A6
:104FC00008BF012002D0302801D102207871787802
:104FD000312808BF032002D0302801D10420B87145
:104FE000B87831287FF4BEAE0520BEE64F464600B5
:104FF000BE213046FFF722BC07F1480001F0A8BCF3
:10500000142107F14800FFF719BC0020032101908B
:105010000091704700200221019000915B46C82258
:10502000704700200221019000915B46A02270474A
:1050300000200221019000915B46782270470020F9
:105040000221019000915B465022E621704700202A
:105050000321019000911F230A220F215046FFF7E0
:10506000EDBB0320FFF73EB9002003210190009122
:105070004FF47843704704217848FEF714BBBE21F3
:105080002046FFF7DBBB4FF480517548FEF70BBBA2
:105090004F4E200010B5734C00F0BBF8FCE7000049
:1050A0002DE9F0414FF47A740A256F4EDFF8BC8188
:1050B000684FF86B401CF863387B012804D14FF42B
:1050C00080516048FEF7F3FA082207F1400140469C
:1050D00000F0B7FB19223146404600F00FFCF07893
:1050E000317901EB00213982317AF079B279090402
:1050F00001EB0061707901EB002189187961707C06
:10510000B17C01EB00213983317CF07BB27B090457
:1051100001EB0061707B01EB00218918F961317BA3
:10512000F07AB27A090401EB0061707A01EB002198
:10513000891839620A21388A90FBF1F105FB1100C8
:10514000F884B9840A21388B90FBF1F105FB11003A
:105150007885398521467869B0FBF1F1F98504FB42
:105160001100B8850A21386AB0FBF1F105FB110086
:10517000388679862146F869B0FBF1F104FB11000D
:10518000B886F98600F048F893E70000F8B5314C8E
:10519000374D354E374FF869401CF861FF213970A3
:1051A0001122F07878703179B970707CF870B17C28
:1051B0003971F0797871317AB9717079F871B179A2
:1051C0003972F07B7872317CB972707BF872B17B86
:1051D0003973F07A7873317BB9733946707AF87322
:1051E0002846B37A3B7400F04DFB072207F1140107
:1051F000284600F083FB387D462807D1787D207053
:10520000B97D6170F87DA070397EE17000F004F81E
:10521000C1E72168491C21600120FFF7F7BC0000AD
:1052200010B5154C2068401C206001F0B9FB0A2025
:10523000FFF7ECFCF6E7000010B5104CFFF7E9FFB4
:10524000FCE700000008024000040240944D0020EA
:10525000AC4D002000000020D24D0020000C024088
:1052600000000240C04D0020784D0020D84C0020A6
:10527000184D0020584D0020C44D0020C84D00207E
:1052800053595354454D20454E455247590000004F
:10529000564F4C543A2025302E32642E2564560049
:1052A000435552523A2025302E31642E2564412038
:1052B00000000000465245513A2025302E32642E1F
:1052C0002564487A20000000454E45523A20256466
:1052D00057680000504F5745523A2025302E316410
:1052E0002E2564572000000054494D452D25302EB1
:1052F00032643A25302E32643A25302E3264000072
:105300005425642D253032642D253032642D323001
:10531000253032640000000044455649434520438F
:105320004F4E54524F4C0000414C4C20444556497E
:1053300043450000444556494345310044455649DC
:105340004345320044455649434533005C780008E4
:10535000000000000000000000000000000000004D
:105360000004000028000000000000000000000011
:105370006878000800000000000000000000000045
:1053800000000000000200002800000000000000F3
:105390000000000074780008000000000000000019
:1053A00000000000000000000002000027000000D4
:1053B00000000000000000008078000800000000ED
:1053C00000000000000000000000000000020000DB
:1053D0002700000000000000000000008C7800089A
:1053E00000000000000000000000000000000000BD
:1053F0000002000027000000000000000000000084
:105400009878000800000000000000000000000084
:105410000000000000040000270000000000000061
:10542000000000002DE9F843040016D02078DFF8D2
:105430000863C10713D5B06800F00C00042807D03A
:10544000B06800F00C0008283ED1706841023BD5DE
:105450003068810303D56068002800F0FF80207861
:10546000B64F810719D5B06810F00C0F07D0B0689F
:1054700000F00C0008285CD17068410259D43068F3
:10548000810703D5E068012840F0E8803168206991
:1054900021F0F80141EAC0013160217808076CD59C
:1054A0006069A749002862D001220A60FEF768F906
:1054B0000546706F810700F1D380FEF761F9401B4C
:1054C0000228F6D9032034E16068B0F5803F04D1AA
:1054D000306840F48030306011E0B0F5A02F3068C3
:1054E00006D140F480203060316841F4803105E01D
:1054F00020F480303060316821F4802131606068B0
:1055000058B1FEF73DF9054630688103A7D4FEF790
:1055100037F9401B6528F7D3D4E7FEF731F9054684
:10552000306881039BD5FEF72BF9401B6528F7D324
:10553000C8E7E06870B101213960FEF721F905463E
:105540003068810700F1B880FEF71AF9401B022885
:10555000F6D9B7E73860FEF713F9054631688807D2
:105560009BD5FEF70DF9401B0228F7D9AAE7086082
:10557000FEF706F90546706F810771D5FEF700F951
:10558000401B0228F7D99DE70528306F06D140F06F
:1055900004003067306F40F0010005E04008400033
:1055A0003067306F20F00400306741F28938A0681E
:1055B00068B1FEF7E5F88146306F810700F1898018
:1055C000FEF7DEF8A0EB09004045F5D37AE7FEF7D9
:1055D000D7F88146306F81077BD5FEF7D1F8A0EB75
:1055E00009004045F6D36DE7FEF7CAF8401B0228D4
:1055F00040F2828066E7FEF7C3F8001B022840F203
:1056000093805FE700203866FEF7BAF804463068FA
:10561000810140F18D80FEF7B3F8001B0228F6D916
:1056200050E701281AD07068E26900F480019142C5
:1056300002BF00F03F01226A91420FD147F6C071CC
:10564000626A0140914202BF00F44031A26A914275
:1056500002BF00F07060E16A884269D0012068E012
:10566000207841073AD5306C0025C1000AD4009556
:105670000125316C41F080513164306C00F0805074
:1056800000900098DFF8BC80D8F80000C1051BD45A
:10569000D8F8000040F48070C8F80000FEF770F8F9
:1056A0008146D8F80000C1050ED4FEF769F8A0EBDA
:1056B00009000228F5D905E73068216920F0F800D3
:1056C00040EAC1003060E8E6A06801287FF45CAFE2
:1056D00060E71DB1306C20F080503064A06938B3B1
:1056E000B16801F00C0108299BD002288AD1002062
:1056F0003866FEF745F80546306881013FF574AF1E
:10570000E269206A616A0243A06A400842EA8112A3
:10571000401E42EA0042E06A42EA006272600121F1
:105720003966FEF72DF80446306881017FF563AFD6
:105730000020BDE8F28300BF00380240000047426D
:10574000800E4742007000400248416802788A1883
:10575000426070477C00002062F30F2262F31F4218
:1057600000B500BF130096469446103928BFA0E844
:105770000C50FAD85FEA417C28BF0CC048BF40F803
:10578000042BC90728BF20F8022B48BF00F8012BC3
:1057900000BD000081B00020009000220A4841684E
:1057A00041F480414160416801F4804100910099D9
:1057B0000092036843F080530360006800F080505B
:1057C0000090009801B070474038024038B504009E
:1057D00001D1012032BD00F021F808B900F022F813
:1057E00000F012F800F023F8FFE7416100F001F843
:1057F00032BD2068C16841F40051C160002068607A
:1058000020216970A9707047242068702068C168E1
:1058100021F40051C160204600F02DBA04F1380592
:1058200068787047002129702046FEF732B9206859
:10583000016921F4904101612068416921F02A0148
:10584000704710B500F138035C78202C18D109B1ED
:10585000140001D1012010BD1C78012C10D00124AE
:105860001C7001628284C2840021596021225A7016
:1058700019700068C26842F08002C260002010BD4A
:10588000022010BD70B5044604F13805134668784F
:10589000202831D109B1180001D1012070BD28782C
:1058A000012829D0012028702162A384E3840020EC
:1058B000686021226A700FF23520226BD063226B60
:1058C0000FF255201064226B0FF29520D064002057
:1058D000266B30652068021D206BFDF79EFB21685A
:1058E0006FF04000086000222A702068416941F092
:1058F00080014161002070BD022070BD7CB504466E
:1059000004F138051346A87820283ED109B11800C3
:1059100001D1012076BD2878012836D001202870D9
:10592000A162A38500226A602220A8700026606B15
:105930000FF2ED12C263606B0FF21D220264606B06
:105940000FF21D22C2640A46606B06652668606B12
:10595000311DFDF762FB0020009021680A6800926B
:1059600000224B68009300982A70CB6843F4807340
:10597000CB602068416941F00101416120684169C3
:1059800041F040014161002076BD022076BD4169B1
:1059900021F040014161606B704738B504462568CD
:1059A0002968EA686B6911F00F0007D188065FD596
:1059B00093065DD52046BDE8324013E1D80702D4F6
:1059C00012F4907F54D0C80705D5D50503D5E06BF8
:1059D00040F00100E063480705D5DD0703D5E06B23
:1059E00040F00200E063880705D5DD0703D5E06BD2
:1059F00040F00400E063080707D5950601D4D807F6
:105A000003D5E36B43F00803E363E06B00286CD03D
:105A1000880604D5910644BF204600F0E3F82068CC
:105A20004069E16B0A0701D440061BD5204600F00F
:105A3000C5F8206841694A060FD5FFF7A8FF60B195
:105A40000FF295110165606BFDF718FB00284CD033
:105A5000606B016DBDE8344008472046BDE8324028
:105A600000F0CEBF204600F0CBFF0020E06331BD48
:105A700008062AD5130628D594F83900212834D1F0
:105A8000A068B0F5805F206A0BD10188C1F30801DE
:105A9000696020690028206A0CBF811C411C2162BA
:105AA00003E0411C216200786860E08C401EE084C5
:105AB00080B2D0B92068C16821F08001C16020683F
:105AC000C16841F04001C16031BD48060DD55106A5
:105AD0000BD5E86820F04000E860202184F83910F8
